{"contracts/ColorGridGame.sol":{"ColorGridGame":{"abi":[{"inputs":[],"stateMutability":"nonpayable","type":"constructor"},{"anonymous":false,"inputs":[{"indexed":true,"internalType":"address","name":"painter","type":"address"},{"indexed":true,"internalType":"uint8","name":"cellIndex","type":"uint8"},{"indexed":true,"internalType":"uint8","name":"colorId","type":"uint8"},{"indexed":false,"internalType":"uint256","name":"pricePaid","type":"uint256"}],"name":"CellPainted","type":"event"},{"anonymous":false,"inputs":[{"indexed":true,"internalType":"uint256","name":"roundId","type":"uint256"},{"indexed":true,"internalType":"uint8","name":"colorId","type":"uint8"},{"indexed":false,"internalType":"uint256","name":"reward","type":"uint256"},{"indexed":false,"internalType":"uint256","name":"totalStrokes","type":"uint256"}],"name":"ColorBankTriggered","type":"event"},{"anonymous":false,"inputs":[{"indexed":true,"internalType":"address","name":"account","type":"address"},{"indexed":false,"internalType":"uint256","name":"amount","type":"uint256"}],"name":"RewardsWithdrawn","type":"event"},{"anonymous":false,"inputs":[{"indexed":true,"internalType":"address","name":"winner","type":"address"},{"indexed":false,"internalType":"uint256","name":"reward","type":"uint256"}],"name":"TimeBankReady","type":"event"},{"inputs":[],"name":"INITIAL_PRICE","outputs":[{"internalType":"uint256","name":"","type":"uint256"}],"stateMutability":"view","type":"function"},{"inputs":[],"name":"canClaimTimeBank","outputs":[{"internalType":"bool","name":"","type":"bool"}],"stateMutability":"view","type":"function"},{"inputs":[{"internalType":"uint256","name":"roundId","type":"uint256"}],"name":"claimColorBank","outputs":[],"stateMutability":"nonpayable","type":"function"},{"inputs":[],"name":"claimTimeBank","outputs":[],"stateMutability":"nonpayable","type":"function"},{"inputs":[{"internalType":"address","name":"","type":"address"}],"name":"claimableBalance","outputs":[{"internalType":"uint256","name":"","type":"uint256"}],"stateMutability":"view","type":"function"},{"inputs":[],"name":"colorBank","outputs":[{"internalType":"uint256","name":"","type":"uint256"}],"stateMutability":"view","type":"function"},{"inputs":[],"name":"colorCount","outputs":[{"internalType":"uint8","name":"","type":"uint8"}],"stateMutability":"view","type":"function"},{"inputs":[{"internalType":"uint256","name":"","type":"uint256"},{"internalType":"address","name":"","type":"address"}],"name":"colorRewardClaimed","outputs":[{"internalType":"bool","name":"","type":"bool"}],"stateMutability":"view","type":"function"},{"inputs":[{"internalType":"uint256","name":"","type":"uint256"}],"name":"colorWins","outputs":[{"internalType":"uint8","name":"colorId","type":"uint8"},{"internalType":"uint256","name":"reward","type":"uint256"},{"internalType":"uint256","name":"totalStrokes","type":"uint256"},{"internalType":"bool","name":"exists","type":"bool"}],"stateMutability":"view","type":"function"},{"inputs":[],"name":"currentPrice","outputs":[{"internalType":"uint256","name":"","type":"uint256"}],"stateMutability":"view","type":"function"},{"inputs":[],"name":"currentRound","outputs":[{"internalType":"uint256","name":"","type":"uint256"}],"stateMutability":"view","type":"function"},{"inputs":[],"name":"getBoard","outputs":[{"internalType":"uint8[]","name":"","type":"uint8[]"}],"stateMutability":"view","type":"function"},{"inputs":[],"name":"getColorFillCounts","outputs":[{"internalType":"uint16[]","name":"","type":"uint16[]"}],"stateMutability":"view","type":"function"},{"inputs":[],"name":"gridCells","outputs":[{"internalType":"uint16","name":"","type":"uint16"}],"stateMutability":"view","type":"function"},{"inputs":[],"name":"gridSide","outputs":[{"internalType":"uint8","name":"","type":"uint8"}],"stateMutability":"view","type":"function"},{"inputs":[],"name":"idleThreshold","outputs":[{"internalType":"uint256","name":"","type":"uint256"}],"stateMutability":"view","type":"function"},{"inputs":[],"name":"lastColorWinRound","outputs":[{"internalType":"uint256","name":"","type":"uint256"}],"stateMutability":"view","type":"function"},{"inputs":[],"name":"lastPaintTimestamp","outputs":[{"internalType":"uint256","name":"","type":"uint256"}],"stateMutability":"view","type":"function"},{"inputs":[],"name":"lastPainter","outputs":[{"internalType":"address","name":"","type":"address"}],"stateMutability":"view","type":"function"},{"inputs":[{"internalType":"uint8","name":"cellIndex","type":"uint8"},{"internalType":"uint8","name":"colorId","type":"uint8"}],"name":"paintCell","outputs":[],"stateMutability":"payable","type":"function"},{"inputs":[{"internalType":"uint256","name":"","type":"uint256"},{"internalType":"uint8","name":"","type":"uint8"},{"internalType":"address","name":"","type":"address"}],"name":"strokesPerRound","outputs":[{"internalType":"uint256","name":"","type":"uint256"}],"stateMutability":"view","type":"function"},{"inputs":[],"name":"timeBank","outputs":[{"internalType":"uint256","name":"","type":"uint256"}],"stateMutability":"view","type":"function"},{"inputs":[{"internalType":"uint256","name":"","type":"uint256"},{"internalType":"uint8","name":"","type":"uint8"}],"name":"totalStrokesPerRound","outputs":[{"internalType":"uint256","name":"","type":"uint256"}],"stateMutability":"view","type":"function"},{"inputs":[],"name":"withdrawRewards","outputs":[],"stateMutability":"nonpayable","type":"function"}],"evm":{"bytecode":{"linkReferences":{},"object":"610100604052662386f26fc1000060005560016005553480156200002257600080fd5b50600a8061025862000038565b60405180910390fd5b60008260ff16116200008d5760405162461bcd60e51b815260206004820152601460248201527f436f6c6f7220636f756e7420726571756972656400000000000000000000000060448201526064016200002f565b60008111620000df5760405162461bcd60e51b815260206004820152601760248201527f49646c65207468726573686f6c6420726571756972656400000000000000000060448201526064016200002f565b60ff83166080819052620000f4908062000391565b61ffff1660a081905260ff831660c05260e08290526001600160401b03811115620001235762000123620003c6565b6040519080825280602002602001820160405280156200014d578160200160208202803683370190505b508051620001649160079160209091019062000231565b5060005b60a05161ffff16811015620001c75760ff600782815481106200018f576200018f620003dc565b90600052602060002090602091828204019190066101000a81548160ff021916908360ff160217905550808060010191505062000168565b508160ff166001600160401b03811115620001e657620001e6620003c6565b60405190808252806020026020018201604052801562000210578160200160208202803683370190505b5080516200022791600891602090910190620002de565b50505050620003f2565b82805482825590600052602060002090601f01602090048101928215620002cc5791602002820160005b838211156200029b57835183826101000a81548160ff021916908360ff16021790555092602001926001016020816000010492830192600103026200025b565b8015620002ca5782816101000a81549060ff02191690556001016020816000010492830192600103026200029b565b505b50620002da9291506200037a565b5090565b82805482825590600052602060002090600f01601090048101928215620002cc5791602002820160005b838211156200034a57835183826101000a81548161ffff021916908361ffff160217905550926020019260020160208160010104928301926001030262000308565b8015620002ca5782816101000a81549061ffff02191690556002016020816001010492830192600103026200034a565b5b80821115620002da57600081556001016200037b565b61ffff818116838216028082169190828114620003be57634e487b7160e01b600052601160045260246000fd5b505092915050565b634e487b7160e01b600052604160045260246000fd5b634e487b7160e01b600052603260045260246000fd5b60805160a05160c05160e0516113e6620004486000396000818161048e0152610afe0152600081816103b901526105b001526000818161050d01528181610545015261092a0152600061018b01526113e66000f3fe60806040526004361061014b5760003560e01c806371813075116100b65780639d1b464a1161006f5780639d1b464a14610466578063c1f78cca1461047c578063c4574ac0146104b0578063c7b8981c146104c6578063dee36302146104db578063e1f49d0b146104fb57600080fd5b806371813075146103925780637668f48d146103a75780637c5e2795146103db5780637f17472f146103f65780638a19c8bc14610418578063925884751461042e57600080fd5b8063378330ad11610108578063378330ad146102575780633dbd4cca1461026c57806346cfce05146102aa5780634fe4915c146102e257806360f3309b146102f8578063620352cd1461032557600080fd5b80630dc360be1461015057806317ee80ca1461017957806319ef4ef0146101bf578063299bd47f146101d4578063304c18b9146101ea5780633264a34b14610235575b600080fd5b34801561015c57600080fd5b5061016660065481565b6040519081526020015b60405180910390f35b34801561018557600080fd5b506101ad7f000000000000000000000000000000000000000000000000000000000000000081565b60405160ff9091168152602001610170565b6101d26101cd366004611158565b610542565b005b3480156101e057600080fd5b5061016660035481565b3480156101f657600080fd5b506102256102053660046111a2565b600d60209081526000928352604080842090915290825290205460ff1681565b6040519015158152602001610170565b34801561024157600080fd5b5061024a61099c565b60405161017091906111c5565b34801561026357600080fd5b506101d2610a12565b34801561027857600080fd5b5061016661028736600461120c565b600960209081526000938452604080852082529284528284209052825290205481565b3480156102b657600080fd5b506004546102ca906001600160a01b031681565b6040516001600160a01b039091168152602001610170565b3480156102ee57600080fd5b5061016660015481565b34801561030457600080fd5b50610166610313366004611248565b600b6020526000908152604090205481565b34801561033157600080fd5b5061036c61034036600461126a565b600c60205260009081526040902080546001820154600283015460039093015460ff9283169391921684565b6040805160ff909516855260208501939093529183015215156060820152608001610170565b34801561039e57600080fd5b50610225610ad6565b3480156103b357600080fd5b506101ad7f000000000000000000000000000000000000000000000000000000000000000081565b3480156103e757600080fd5b50610166662386f26fc1000081565b34801561040257600080fd5b5061040b610b33565b6040516101709190611283565b34801561042457600080fd5b5061016660055481565b34801561043a57600080fd5b506101666104493660046112bf565b600a60209081526000928352604080842090915290825290205481565b34801561047257600080fd5b5061016660005481565b34801561048857600080fd5b506101667f000000000000000000000000000000000000000000000000000000000000000081565b3480156104bc57600080fd5b5061016660025481565b3480156104d257600080fd5b506101d2610bb2565b3480156104e757600080fd5b506101d26104f636600461126a565b610d2e565b34801561050757600080fd5b5061052f7f000000000000000000000000000000000000000000000000000000000000000081565b60405161ffff9091168152602001610170565b817f000000000000000000000000000000000000000000000000000000000000000061ffff168160ff16106105ad5760405162461bcd60e51b815260206004820152600c60248201526b125b9d985b1a590818d95b1b60a21b60448201526064015b60405180910390fd5b817f000000000000000000000000000000000000000000000000000000000000000060ff168160ff16106106135760405162461bcd60e51b815260206004820152600d60248201526c24b73b30b634b21031b7b637b960991b60448201526064016105a4565b60005434146106585760405162461bcd60e51b8152602060048201526011602482015270125b98dbdc9c9958dd081c185e5b595b9d607a1b60448201526064016105a4565b600060078560ff1681548110610670576106706112e2565b60009182526020918290209181049091015460ff601f9092166101000a900481169150841681036106e35760405162461bcd60e51b815260206004820152601f60248201527f416c7265616479207061696e7465642077697468207468697320636f6c6f720060448201526064016105a4565b8360078660ff16815481106106fa576106fa6112e2565b90600052602060002090602091828204019190066101000a81548160ff021916908360ff16021790555060ff80168160ff161461079557600160088260ff1681548110610749576107496112e2565b90600052602060002090601091828204019190066002028282829054906101000a900461ffff1661077a919061130e565b92506101000a81548161ffff021916908361ffff1602179055505b600160088560ff16815481106107ad576107ad6112e2565b90600052602060002090601091828204019190066002028282829054906101000a900461ffff166107de9190611330565b92506101000a81548161ffff021916908361ffff1602179055506000612710611f403461080b919061134b565b6108159190611368565b90506000610823823461138a565b90508160016000828254610837919061139d565b925050819055508060026000828254610850919061139d565b909155505042600355600480546001600160a01b03191633908117909155600554600090815260096020908152604080832060ff8b16845282528083209383529290529081208054600192906108a790849061139d565b90915550506005546000908152600a6020908152604080832060ff8a16845290915281208054600192906108dc90849061139d565b909155505060405134815260ff808816919089169033907f0325e89373ee1e1a17e0733637253e56a141aa0d40880e92155ee0c1233e4f819060200160405180910390a4610928610ee0565b7f000000000000000000000000000000000000000000000000000000000000000061ffff1660088760ff1681548110610963576109636112e2565b60009182526020909120601082040154600f9091166002026101000a900461ffff16036109935761099386610f0b565b50505050505050565b60606007805480602002602001604051908101604052809291908181526020018280548015610a0857602002820191906000526020600020906000905b825461010083900a900460ff168152602060019283018181049485019490930390920291018084116109d95790505b5050505050905090565b610a1a610ad6565b610a595760405162461bcd60e51b815260206004820152601060248201526f151a5b594818985b9ac81b1bd8dad95960821b60448201526064016105a4565b600454600180546000918290556001600160a01b03909216808252600b6020526040822080549193928392610a8f90849061139d565b90915550506040518181526001600160a01b038316907f0b5dc20753823b22c1b265cdd463761314e76773534afecd4e97211e03137ac59060200160405180910390a25050565b6004546000906001600160a01b031615801590610af557506000600154115b8015610b2e57507f0000000000000000000000000000000000000000000000000000000000000000600354610b2a919061139d565b4210155b905090565b60606008805480602002602001604051908101604052809291908181526020018280548015610a0857602002820191906000526020600020906000905b82829054906101000a900461ffff1661ffff1681526020019060020190602082600101049283019260010382029150808411610b705790505050505050905090565b600e5460ff1615610bf25760405162461bcd60e51b815260206004820152600a6024820152695265656e7472616e637960b01b60448201526064016105a4565b600e805460ff19166001179055336000908152600b602052604090205480610c525760405162461bcd60e51b81526020600482015260136024820152724e6f7468696e6720746f20776974686472617760681b60448201526064016105a4565b336000818152600b60205260408082208290555190919083908381818185875af1925050503d8060008114610ca3576040519150601f19603f3d011682016040523d82523d6000602084013e610ca8565b606091505b5050905080610ceb5760405162461bcd60e51b815260206004820152600f60248201526e151c985b9cd9995c8819985a5b1959608a1b60448201526064016105a4565b60405182815233907f8a43c4352486ec339f487f64af78ca5cbf06cd47833f073d3baf3a193e5031619060200160405180910390a25050600e805460ff19169055565b6000818152600c60209081526040918290208251608081018452815460ff90811682526001830154938201939093526002820154938101939093526003015416151560608201819052610db35760405162461bcd60e51b815260206004820152600d60248201526c526f756e64206d697373696e6760981b60448201526064016105a4565b6000828152600d6020908152604080832033845290915290205460ff1615610e0f5760405162461bcd60e51b815260206004820152600f60248201526e105b1c9958591e4818db185a5b5959608a1b60448201526064016105a4565b6000828152600960209081526040808320845160ff168452825280832033845290915290205480610e745760405162461bcd60e51b815260206004820152600f60248201526e27379031b7b73a3934b13aba34b7b760891b60448201526064016105a4565b60008260400151828460200151610e8b919061134b565b610e959190611368565b6000858152600d602090815260408083203384528252808320805460ff19166001179055600b909152812080549293508392909190610ed590849061139d565b909155505050505050565b612710610eef61012c8261139d565b600054610efc919061134b565b610f069190611368565b600055565b60025480610f4e5760405162461bcd60e51b815260206004820152601060248201526f436f6c6f722062616e6b20656d70747960801b60448201526064016105a4565b6005546000908152600a6020908152604080832060ff8616845290915290205480610fb25760405162461bcd60e51b815260206004820152601460248201527327379039ba3937b5b2b9903337b91031b7b637b960611b60448201526064016105a4565b600060028181556040805160808101825260ff8781168083526020808401898152848601898152600160608701818152600580548c52600c86529a89902097518854971660ff19978816178855925190870155519685019690965594516003909301805493151593909216929092179055925460068190558151868152928301859052917f015d0b20ebe8fb7eb1bec190a0265353f6f6ac37422457114606d7df267ce7a4910160405180910390a3600160056000828254611074919061139d565b909155506110829050611087565b505050565b60005b6007548110156110e05760ff600782815481106110a9576110a96112e2565b90600052602060002090602091828204019190066101000a81548160ff021916908360ff160217905550808060010191505061108a565b5060005b60085481101561113f57600060088281548110611103576111036112e2565b90600052602060002090601091828204019190066002026101000a81548161ffff021916908361ffff16021790555080806001019150506110e4565b50565b803560ff8116811461115357600080fd5b919050565b6000806040838503121561116b57600080fd5b61117483611142565b915061118260208401611142565b90509250929050565b80356001600160a01b038116811461115357600080fd5b600080604083850312156111b557600080fd5b823591506111826020840161118b565b6020808252825182820181905260009190848201906040850190845b8181101561120057835160ff16835292840192918401916001016111e1565b50909695505050505050565b60008060006060848603121561122157600080fd5b8335925061123160208501611142565b915061123f6040850161118b565b90509250925092565b60006020828403121561125a57600080fd5b6112638261118b565b9392505050565b60006020828403121561127c57600080fd5b5035919050565b6020808252825182820181905260009190848201906040850190845b8181101561120057835161ffff168352928401929184019160010161129f565b600080604083850312156112d257600080fd5b8235915061118260208401611142565b634e487b7160e01b600052603260045260246000fd5b634e487b7160e01b600052601160045260246000fd5b61ffff828116828216039080821115611329576113296112f8565b5092915050565b61ffff818116838216019080821115611329576113296112f8565b8082028115828204841417611362576113626112f8565b92915050565b60008261138557634e487b7160e01b600052601260045260246000fd5b500490565b81810381811115611362576113626112f8565b80820180821115611362576113626112f856fea2646970667358221220d1f1f19f6a88dce4ae2af8c3b1b5070df49ae1db393487531665f80846395ee164736f6c63430008170033","opcodes":"PUSH2 0x100 PUSH1 0x40 MSTORE PUSH7 0x2386F26FC10000 PUSH1 0x0 SSTORE PUSH1 0x1 PUSH1 0x5 SSTORE CALLVALUE DUP1 ISZERO PUSH3 0x22 JUMPI PUSH1 0x0 DUP1 REVERT JUMPDEST POP PUSH1 0xA DUP1 PUSH2 0x258 PUSH3 0x38 JUMP JUMPDEST PUSH1 0x40 MLOAD DUP1 SWAP2 SUB SWAP1 REVERT JUMPDEST PUSH1 0x0 DUP3 PUSH1 0xFF AND GT PUSH3 0x8D JUMPI PUSH1 0x40 MLOAD PUSH3 0x461BCD PUSH1 0xE5 SHL DUP2 MSTORE PUSH1 0x20 PUSH1 0x4 DUP3 ADD MSTORE PUSH1 0x14 PUSH1 0x24 DUP3 ADD MSTORE PUSH32 0x436F6C6F7220636F756E74207265717569726564000000000000000000000000 PUSH1 0x44 DUP3 ADD MSTORE PUSH1 0x64 ADD PUSH3 0x2F JUMP JUMPDEST PUSH1 0x0 DUP2 GT PUSH3 0xDF JUMPI PUSH1 0x40 MLOAD PUSH3 0x461BCD PUSH1 0xE5 SHL DUP2 MSTORE PUSH1 0x20 PUSH1 0x4 DUP3 ADD MSTORE PUSH1 0x17 PUSH1 0x24 DUP3 ADD MSTORE PUSH32 0x49646C65207468726573686F6C64207265717569726564000000000000000000 PUSH1 0x44 DUP3 ADD MSTORE PUSH1 0x64 ADD PUSH3 0x2F JUMP JUMPDEST PUSH1 0xFF DUP4 AND PUSH1 0x80 DUP2 SWAP1 MSTORE PUSH3 0xF4 SWAP1 DUP1 PUSH3 0x391 JUMP JUMPDEST PUSH2 0xFFFF AND PUSH1 0xA0 DUP2 SWAP1 MSTORE PUSH1 0xFF DUP4 AND PUSH1 0xC0 MSTORE PUSH1 0xE0 DUP3 SWAP1 MSTORE PUSH1 0x1 PUSH1 0x1 PUSH1 0x40 SHL SUB DUP2 GT ISZERO PUSH3 0x123 JUMPI PUSH3 0x123 PUSH3 0x3C6 JUMP JUMPDEST PUSH1 0x40 MLOAD SWAP1 DUP1 DUP3 MSTORE DUP1 PUSH1 0x20 MUL PUSH1 0x20 ADD DUP3 ADD PUSH1 0x40 MSTORE DUP1 ISZERO PUSH3 0x14D JUMPI DUP2 PUSH1 0x20 ADD PUSH1 0x20 DUP3 MUL DUP1 CALLDATASIZE DUP4 CALLDATACOPY ADD SWAP1 POP JUMPDEST POP DUP1 MLOAD PUSH3 0x164 SWAP2 PUSH1 0x7 SWAP2 PUSH1 0x20 SWAP1 SWAP2 ADD SWAP1 PUSH3 0x231 JUMP JUMPDEST POP PUSH1 0x0 JUMPDEST PUSH1 0xA0 MLOAD PUSH2 0xFFFF AND DUP2 LT ISZERO PUSH3 0x1C7 JUMPI PUSH1 0xFF PUSH1 0x7 DUP3 DUP2 SLOAD DUP2 LT PUSH3 0x18F JUMPI PUSH3 0x18F PUSH3 0x3DC JUMP JUMPDEST SWAP1 PUSH1 0x0 MSTORE PUSH1 0x20 PUSH1 0x0 KECCAK256 SWAP1 PUSH1 0x20 SWAP2 DUP3 DUP3 DIV ADD SWAP2 SWAP1 MOD PUSH2 0x100 EXP DUP2 SLOAD DUP2 PUSH1 0xFF MUL NOT AND SWAP1 DUP4 PUSH1 0xFF AND MUL OR SWAP1 SSTORE POP DUP1 DUP1 PUSH1 0x1 ADD SWAP2 POP POP PUSH3 0x168 JUMP JUMPDEST POP DUP2 PUSH1 0xFF AND PUSH1 0x1 PUSH1 0x1 PUSH1 0x40 SHL SUB DUP2 GT ISZERO PUSH3 0x1E6 JUMPI PUSH3 0x1E6 PUSH3 0x3C6 JUMP JUMPDEST PUSH1 0x40 MLOAD SWAP1 DUP1 DUP3 MSTORE DUP1 PUSH1 0x20 MUL PUSH1 0x20 ADD DUP3 ADD PUSH1 0x40 MSTORE DUP1 ISZERO PUSH3 0x210 JUMPI DUP2 PUSH1 0x20 ADD PUSH1 0x20 DUP3 MUL DUP1 CALLDATASIZE DUP4 CALLDATACOPY ADD SWAP1 POP JUMPDEST POP DUP1 MLOAD PUSH3 0x227 SWAP2 PUSH1 0x8 SWAP2 PUSH1 0x20 SWAP1 SWAP2 ADD SWAP1 PUSH3 0x2DE JUMP JUMPDEST POP POP POP POP PUSH3 0x3F2 JUMP JUMPDEST DUP3 DUP1 SLOAD DUP3 DUP3 SSTORE SWAP1 PUSH1 0x0 MSTORE PUSH1 0x20 PUSH1 0x0 KECCAK256 SWAP1 PUSH1 0x1F ADD PUSH1 0x20 SWAP1 DIV DUP2 ADD SWAP3 DUP3 ISZERO PUSH3 0x2CC JUMPI SWAP2 PUSH1 0x20 MUL DUP3 ADD PUSH1 0x0 JUMPDEST DUP4 DUP3 GT ISZERO PUSH3 0x29B JUMPI DUP4 MLOAD DUP4 DUP3 PUSH2 0x100 EXP DUP2 SLOAD DUP2 PUSH1 0xFF MUL NOT AND SWAP1 DUP4 PUSH1 0xFF AND MUL OR SWAP1 SSTORE POP SWAP3 PUSH1 0x20 ADD SWAP3 PUSH1 0x1 ADD PUSH1 0x20 DUP2 PUSH1 0x0 ADD DIV SWAP3 DUP4 ADD SWAP3 PUSH1 0x1 SUB MUL PUSH3 0x25B JUMP JUMPDEST DUP1 ISZERO PUSH3 0x2CA JUMPI DUP3 DUP2 PUSH2 0x100 EXP DUP2 SLOAD SWAP1 PUSH1 0xFF MUL NOT AND SWAP1 SSTORE PUSH1 0x1 ADD PUSH1 0x20 DUP2 PUSH1 0x0 ADD DIV SWAP3 DUP4 ADD SWAP3 PUSH1 0x1 SUB MUL PUSH3 0x29B JUMP JUMPDEST POP JUMPDEST POP PUSH3 0x2DA SWAP3 SWAP2 POP PUSH3 0x37A JUMP JUMPDEST POP SWAP1 JUMP JUMPDEST DUP3 DUP1 SLOAD DUP3 DUP3 SSTORE SWAP1 PUSH1 0x0 MSTORE PUSH1 0x20 PUSH1 0x0 KECCAK256 SWAP1 PUSH1 0xF ADD PUSH1 0x10 SWAP1 DIV DUP2 ADD SWAP3 DUP3 ISZERO PUSH3 0x2CC JUMPI SWAP2 PUSH1 0x20 MUL DUP3 ADD PUSH1 0x0 JUMPDEST DUP4 DUP3 GT ISZERO PUSH3 0x34A JUMPI DUP4 MLOAD DUP4 DUP3 PUSH2 0x100 EXP DUP2 SLOAD DUP2 PUSH2 0xFFFF MUL NOT AND SWAP1 DUP4 PUSH2 0xFFFF AND MUL OR SWAP1 SSTORE POP SWAP3 PUSH1 0x20 ADD SWAP3 PUSH1 0x2 ADD PUSH1 0x20 DUP2 PUSH1 0x1 ADD DIV SWAP3 DUP4 ADD SWAP3 PUSH1 0x1 SUB MUL PUSH3 0x308 JUMP JUMPDEST DUP1 ISZERO PUSH3 0x2CA JUMPI DUP3 DUP2 PUSH2 0x100 EXP DUP2 SLOAD SWAP1 PUSH2 0xFFFF MUL NOT AND SWAP1 SSTORE PUSH1 0x2 ADD PUSH1 0x20 DUP2 PUSH1 0x1 ADD DIV SWAP3 DUP4 ADD SWAP3 PUSH1 0x1 SUB MUL PUSH3 0x34A JUMP JUMPDEST JUMPDEST DUP1 DUP3 GT ISZERO PUSH3 0x2DA JUMPI PUSH1 0x0 DUP2 SSTORE PUSH1 0x1 ADD PUSH3 0x37B JUMP JUMPDEST PUSH2 0xFFFF DUP2 DUP2 AND DUP4 DUP3 AND MUL DUP1 DUP3 AND SWAP2 SWAP1 DUP3 DUP2 EQ PUSH3 0x3BE JUMPI PUSH4 0x4E487B71 PUSH1 0xE0 SHL PUSH1 0x0 MSTORE PUSH1 0x11 PUSH1 0x4 MSTORE PUSH1 0x24 PUSH1 0x0 REVERT JUMPDEST POP POP SWAP3 SWAP2 POP POP JUMP JUMPDEST PUSH4 0x4E487B71 PUSH1 0xE0 SHL PUSH1 0x0 MSTORE PUSH1 0x41 PUSH1 0x4 MSTORE PUSH1 0x24 PUSH1 0x0 REVERT JUMPDEST PUSH4 0x4E487B71 PUSH1 0xE0 SHL PUSH1 0x0 MSTORE PUSH1 0x32 PUSH1 0x4 MSTORE PUSH1 0x24 PUSH1 0x0 REVERT JUMPDEST PUSH1 0x80 MLOAD PUSH1 0xA0 MLOAD PUSH1 0xC0 MLOAD PUSH1 0xE0 MLOAD PUSH2 0x13E6 PUSH3 0x448 PUSH1 0x0 CODECOPY PUSH1 0x0 DUP2 DUP2 PUSH2 0x48E ADD MSTORE PUSH2 0xAFE ADD MSTORE PUSH1 0x0 DUP2 DUP2 PUSH2 0x3B9 ADD MSTORE PUSH2 0x5B0 ADD MSTORE PUSH1 0x0 DUP2 DUP2 PUSH2 0x50D ADD MSTORE DUP2 DUP2 PUSH2 0x545 ADD MSTORE PUSH2 0x92A ADD MSTORE PUSH1 0x0 PUSH2 0x18B ADD MSTORE PUSH2 0x13E6 PUSH1 0x0 RETURN INVALID PUSH1 0x80 PUSH1 0x40 MSTORE PUSH1 0x4 CALLDATASIZE LT PUSH2 0x14B JUMPI PUSH1 0x0 CALLDATALOAD PUSH1 0xE0 SHR DUP1 PUSH4 0x71813075 GT PUSH2 0xB6 JUMPI DUP1 PUSH4 0x9D1B464A GT PUSH2 0x6F JUMPI DUP1 PUSH4 0x9D1B464A EQ PUSH2 0x466 JUMPI DUP1 PUSH4 0xC1F78CCA EQ PUSH2 0x47C JUMPI DUP1 PUSH4 0xC4574AC0 EQ PUSH2 0x4B0 JUMPI DUP1 PUSH4 0xC7B8981C EQ PUSH2 0x4C6 JUMPI DUP1 PUSH4 0xDEE36302 EQ PUSH2 0x4DB JUMPI DUP1 PUSH4 0xE1F49D0B EQ PUSH2 0x4FB JUMPI PUSH1 0x0 DUP1 REVERT JUMPDEST DUP1 PUSH4 0x71813075 EQ PUSH2 0x392 JUMPI DUP1 PUSH4 0x7668F48D EQ PUSH2 0x3A7 JUMPI DUP1 PUSH4 0x7C5E2795 EQ PUSH2 0x3DB JUMPI DUP1 PUSH4 0x7F17472F EQ PUSH2 0x3F6 JUMPI DUP1 PUSH4 0x8A19C8BC EQ PUSH2 0x418 JUMPI DUP1 PUSH4 0x92588475 EQ PUSH2 0x42E JUMPI PUSH1 0x0 DUP1 REVERT JUMPDEST DUP1 PUSH4 0x378330AD GT PUSH2 0x108 JUMPI DUP1 PUSH4 0x378330AD EQ PUSH2 0x257 JUMPI DUP1 PUSH4 0x3DBD4CCA EQ PUSH2 0x26C JUMPI DUP1 PUSH4 0x46CFCE05 EQ PUSH2 0x2AA JUMPI DUP1 PUSH4 0x4FE4915C EQ PUSH2 0x2E2 JUMPI DUP1 PUSH4 0x60F3309B EQ PUSH2 0x2F8 JUMPI DUP1 PUSH4 0x620352CD EQ PUSH2 0x325 JUMPI PUSH1 0x0 DUP1 REVERT JUMPDEST DUP1 PUSH4 0xDC360BE EQ PUSH2 0x150 JUMPI DUP1 PUSH4 0x17EE80CA EQ PUSH2 0x179 JUMPI DUP1 PUSH4 0x19EF4EF0 EQ PUSH2 0x1BF JUMPI DUP1 PUSH4 0x299BD47F EQ PUSH2 0x1D4 JUMPI DUP1 PUSH4 0x304C18B9 EQ PUSH2 0x1EA JUMPI DUP1 PUSH4 0x3264A34B EQ PUSH2 0x235 JUMPI JUMPDEST PUSH1 0x0 DUP1 REVERT JUMPDEST CALLVALUE DUP1 ISZERO PUSH2 0x15C JUMPI PUSH1 0x0 DUP1 REVERT JUMPDEST POP PUSH2 0x166 PUSH1 0x6 SLOAD DUP2 JUMP JUMPDEST PUSH1 0x40 MLOAD SWAP1 DUP2 MSTORE PUSH1 0x20 ADD JUMPDEST PUSH1 0x40 MLOAD DUP1 SWAP2 SUB SWAP1 RETURN JUMPDEST CALLVALUE DUP1 ISZERO PUSH2 0x185 JUMPI PUSH1 0x0 DUP1 REVERT JUMPDEST POP PUSH2 0x1AD PUSH32 0x0 DUP2 JUMP JUMPDEST PUSH1 0x40 MLOAD PUSH1 0xFF SWAP1 SWAP2 AND DUP2 MSTORE PUSH1 0x20 ADD PUSH2 0x170 JUMP JUMPDEST PUSH2 0x1D2 PUSH2 0x1CD CALLDATASIZE PUSH1 0x4 PUSH2 0x1158 JUMP JUMPDEST PUSH2 0x542 JUMP JUMPDEST STOP JUMPDEST CALLVALUE DUP1 ISZERO PUSH2 0x1E0 JUMPI PUSH1 0x0 DUP1 REVERT JUMPDEST POP PUSH2 0x166 PUSH1 0x3 SLOAD DUP2 JUMP JUMPDEST CALLVALUE DUP1 ISZERO PUSH2 0x1F6 JUMPI PUSH1 0x0 DUP1 REVERT JUMPDEST POP PUSH2 0x225 PUSH2 0x205 CALLDATASIZE PUSH1 0x4 PUSH2 0x11A2 JUMP JUMPDEST PUSH1 0xD PUSH1 0x20 SWAP1 DUP2 MSTORE PUSH1 0x0 SWAP3 DUP4 MSTORE PUSH1 0x40 DUP1 DUP5 KECCAK256 SWAP1 SWAP2 MSTORE SWAP1 DUP3 MSTORE SWAP1 KECCAK256 SLOAD PUSH1 0xFF AND DUP2 JUMP JUMPDEST PUSH1 0x40 MLOAD SWAP1 ISZERO ISZERO DUP2 MSTORE PUSH1 0x20 ADD PUSH2 0x170 JUMP JUMPDEST CALLVALUE DUP1 ISZERO PUSH2 0x241 JUMPI PUSH1 0x0 DUP1 REVERT JUMPDEST POP PUSH2 0x24A PUSH2 0x99C JUMP JUMPDEST PUSH1 0x40 MLOAD PUSH2 0x170 SWAP2 SWAP1 PUSH2 0x11C5 JUMP JUMPDEST CALLVALUE DUP1 ISZERO PUSH2 0x263 JUMPI PUSH1 0x0 DUP1 REVERT JUMPDEST POP PUSH2 0x1D2 PUSH2 0xA12 JUMP JUMPDEST CALLVALUE DUP1 ISZERO PUSH2 0x278 JUMPI PUSH1 0x0 DUP1 REVERT JUMPDEST POP PUSH2 0x166 PUSH2 0x287 CALLDATASIZE PUSH1 0x4 PUSH2 0x120C JUMP JUMPDEST PUSH1 0x9 PUSH1 0x20 SWAP1 DUP2 MSTORE PUSH1 0x0 SWAP4 DUP5 MSTORE PUSH1 0x40 DUP1 DUP6 KECCAK256 DUP3 MSTORE SWAP3 DUP5 MSTORE DUP3 DUP5 KECCAK256 SWAP1 MSTORE DUP3 MSTORE SWAP1 KECCAK256 SLOAD DUP2 JUMP JUMPDEST CALLVALUE DUP1 ISZERO PUSH2 0x2B6 JUMPI PUSH1 0x0 DUP1 REVERT JUMPDEST POP PUSH1 0x4 SLOAD PUSH2 0x2CA SWAP1 PUSH1 0x1 PUSH1 0x1 PUSH1 0xA0 SHL SUB AND DUP2 JUMP JUMPDEST PUSH1 0x40 MLOAD PUSH1 0x1 PUSH1 0x1 PUSH1 0xA0 SHL SUB SWAP1 SWAP2 AND DUP2 MSTORE PUSH1 0x20 ADD PUSH2 0x170 JUMP JUMPDEST CALLVALUE DUP1 ISZERO PUSH2 0x2EE JUMPI PUSH1 0x0 DUP1 REVERT JUMPDEST POP PUSH2 0x166 PUSH1 0x1 SLOAD DUP2 JUMP JUMPDEST CALLVALUE DUP1 ISZERO PUSH2 0x304 JUMPI PUSH1 0x0 DUP1 REVERT JUMPDEST POP PUSH2 0x166 PUSH2 0x313 CALLDATASIZE PUSH1 0x4 PUSH2 0x1248 JUMP JUMPDEST PUSH1 0xB PUSH1 0x20 MSTORE PUSH1 0x0 SWAP1 DUP2 MSTORE PUSH1 0x40 SWAP1 KECCAK256 SLOAD DUP2 JUMP JUMPDEST CALLVALUE DUP1 ISZERO PUSH2 0x331 JUMPI PUSH1 0x0 DUP1 REVERT JUMPDEST POP PUSH2 0x36C PUSH2 0x340 CALLDATASIZE PUSH1 0x4 PUSH2 0x126A JUMP JUMPDEST PUSH1 0xC PUSH1 0x20 MSTORE PUSH1 0x0 SWAP1 DUP2 MSTORE PUSH1 0x40 SWAP1 KECCAK256 DUP1 SLOAD PUSH1 0x1 DUP3 ADD SLOAD PUSH1 0x2 DUP4 ADD SLOAD PUSH1 0x3 SWAP1 SWAP4 ADD SLOAD PUSH1 0xFF SWAP3 DUP4 AND SWAP4 SWAP2 SWAP3 AND DUP5 JUMP JUMPDEST PUSH1 0x40 DUP1 MLOAD PUSH1 0xFF SWAP1 SWAP6 AND DUP6 MSTORE PUSH1 0x20 DUP6 ADD SWAP4 SWAP1 SWAP4 MSTORE SWAP2 DUP4 ADD MSTORE ISZERO ISZERO PUSH1 0x60 DUP3 ADD MSTORE PUSH1 0x80 ADD PUSH2 0x170 JUMP JUMPDEST CALLVALUE DUP1 ISZERO PUSH2 0x39E JUMPI PUSH1 0x0 DUP1 REVERT JUMPDEST POP PUSH2 0x225 PUSH2 0xAD6 JUMP JUMPDEST CALLVALUE DUP1 ISZERO PUSH2 0x3B3 JUMPI PUSH1 0x0 DUP1 REVERT JUMPDEST POP PUSH2 0x1AD PUSH32 0x0 DUP2 JUMP JUMPDEST CALLVALUE DUP1 ISZERO PUSH2 0x3E7 JUMPI PUSH1 0x0 DUP1 REVERT JUMPDEST POP PUSH2 0x166 PUSH7 0x2386F26FC10000 DUP2 JUMP JUMPDEST CALLVALUE DUP1 ISZERO PUSH2 0x402 JUMPI PUSH1 0x0 DUP1 REVERT JUMPDEST POP PUSH2 0x40B PUSH2 0xB33 JUMP JUMPDEST PUSH1 0x40 MLOAD PUSH2 0x170 SWAP2 SWAP1 PUSH2 0x1283 JUMP JUMPDEST CALLVALUE DUP1 ISZERO PUSH2 0x424 JUMPI PUSH1 0x0 DUP1 REVERT JUMPDEST POP PUSH2 0x166 PUSH1 0x5 SLOAD DUP2 JUMP JUMPDEST CALLVALUE DUP1 ISZERO PUSH2 0x43A JUMPI PUSH1 0x0 DUP1 REVERT JUMPDEST POP PUSH2 0x166 PUSH2 0x449 CALLDATASIZE PUSH1 0x4 PUSH2 0x12BF JUMP JUMPDEST PUSH1 0xA PUSH1 0x20 SWAP1 DUP2 MSTORE PUSH1 0x0 SWAP3 DUP4 MSTORE PUSH1 0x40 DUP1 DUP5 KECCAK256 SWAP1 SWAP2 MSTORE SWAP1 DUP3 MSTORE SWAP1 KECCAK256 SLOAD DUP2 JUMP JUMPDEST CALLVALUE DUP1 ISZERO PUSH2 0x472 JUMPI PUSH1 0x0 DUP1 REVERT JUMPDEST POP PUSH2 0x166 PUSH1 0x0 SLOAD DUP2 JUMP JUMPDEST CALLVALUE DUP1 ISZERO PUSH2 0x488 JUMPI PUSH1 0x0 DUP1 REVERT JUMPDEST POP PUSH2 0x166 PUSH32 0x0 DUP2 JUMP JUMPDEST CALLVALUE DUP1 ISZERO PUSH2 0x4BC JUMPI PUSH1 0x0 DUP1 REVERT JUMPDEST POP PUSH2 0x166 PUSH1 0x2 SLOAD DUP2 JUMP JUMPDEST CALLVALUE DUP1 ISZERO PUSH2 0x4D2 JUMPI PUSH1 0x0 DUP1 REVERT JUMPDEST POP PUSH2 0x1D2 PUSH2 0xBB2 JUMP JUMPDEST CALLVALUE DUP1 ISZERO PUSH2 0x4E7 JUMPI PUSH1 0x0 DUP1 REVERT JUMPDEST POP PUSH2 0x1D2 PUSH2 0x4F6 CALLDATASIZE PUSH1 0x4 PUSH2 0x126A JUMP JUMPDEST PUSH2 0xD2E JUMP JUMPDEST CALLVALUE DUP1 ISZERO PUSH2 0x507 JUMPI PUSH1 0x0 DUP1 REVERT JUMPDEST POP PUSH2 0x52F PUSH32 0x0 DUP2 JUMP JUMPDEST PUSH1 0x40 MLOAD PUSH2 0xFFFF SWAP1 SWAP2 AND DUP2 MSTORE PUSH1 0x20 ADD PUSH2 0x170 JUMP JUMPDEST DUP2 PUSH32 0x0 PUSH2 0xFFFF AND DUP2 PUSH1 0xFF AND LT PUSH2 0x5AD JUMPI PUSH1 0x40 MLOAD PUSH3 0x461BCD PUSH1 0xE5 SHL DUP2 MSTORE PUSH1 0x20 PUSH1 0x4 DUP3 ADD MSTORE PUSH1 0xC PUSH1 0x24 DUP3 ADD MSTORE PUSH12 0x125B9D985B1A590818D95B1B PUSH1 0xA2 SHL PUSH1 0x44 DUP3 ADD MSTORE PUSH1 0x64 ADD JUMPDEST PUSH1 0x40 MLOAD DUP1 SWAP2 SUB SWAP1 REVERT JUMPDEST DUP2 PUSH32 0x0 PUSH1 0xFF AND DUP2 PUSH1 0xFF AND LT PUSH2 0x613 JUMPI PUSH1 0x40 MLOAD PUSH3 0x461BCD PUSH1 0xE5 SHL DUP2 MSTORE PUSH1 0x20 PUSH1 0x4 DUP3 ADD MSTORE PUSH1 0xD PUSH1 0x24 DUP3 ADD MSTORE PUSH13 0x24B73B30B634B21031B7B637B9 PUSH1 0x99 SHL PUSH1 0x44 DUP3 ADD MSTORE PUSH1 0x64 ADD PUSH2 0x5A4 JUMP JUMPDEST PUSH1 0x0 SLOAD CALLVALUE EQ PUSH2 0x658 JUMPI PUSH1 0x40 MLOAD PUSH3 0x461BCD PUSH1 0xE5 SHL DUP2 MSTORE PUSH1 0x20 PUSH1 0x4 DUP3 ADD MSTORE PUSH1 0x11 PUSH1 0x24 DUP3 ADD MSTORE PUSH17 0x125B98DBDC9C9958DD081C185E5B595B9D PUSH1 0x7A SHL PUSH1 0x44 DUP3 ADD MSTORE PUSH1 0x64 ADD PUSH2 0x5A4 JUMP JUMPDEST PUSH1 0x0 PUSH1 0x7 DUP6 PUSH1 0xFF AND DUP2 SLOAD DUP2 LT PUSH2 0x670 JUMPI PUSH2 0x670 PUSH2 0x12E2 JUMP JUMPDEST PUSH1 0x0 SWAP2 DUP3 MSTORE PUSH1 0x20 SWAP2 DUP3 SWAP1 KECCAK256 SWAP2 DUP2 DIV SWAP1 SWAP2 ADD SLOAD PUSH1 0xFF PUSH1 0x1F SWAP1 SWAP3 AND PUSH2 0x100 EXP SWAP1 DIV DUP2 AND SWAP2 POP DUP5 AND DUP2 SUB PUSH2 0x6E3 JUMPI PUSH1 0x40 MLOAD PUSH3 0x461BCD PUSH1 0xE5 SHL DUP2 MSTORE PUSH1 0x20 PUSH1 0x4 DUP3 ADD MSTORE PUSH1 0x1F PUSH1 0x24 DUP3 ADD MSTORE PUSH32 0x416C7265616479207061696E7465642077697468207468697320636F6C6F7200 PUSH1 0x44 DUP3 ADD MSTORE PUSH1 0x64 ADD PUSH2 0x5A4 JUMP JUMPDEST DUP4 PUSH1 0x7 DUP7 PUSH1 0xFF AND DUP2 SLOAD DUP2 LT PUSH2 0x6FA JUMPI PUSH2 0x6FA PUSH2 0x12E2 JUMP JUMPDEST SWAP1 PUSH1 0x0 MSTORE PUSH1 0x20 PUSH1 0x0 KECCAK256 SWAP1 PUSH1 0x20 SWAP2 DUP3 DUP3 DIV ADD SWAP2 SWAP1 MOD PUSH2 0x100 EXP DUP2 SLOAD DUP2 PUSH1 0xFF MUL NOT AND SWAP1 DUP4 PUSH1 0xFF AND MUL OR SWAP1 SSTORE POP PUSH1 0xFF DUP1 AND DUP2 PUSH1 0xFF AND EQ PUSH2 0x795 JUMPI PUSH1 0x1 PUSH1 0x8 DUP3 PUSH1 0xFF AND DUP2 SLOAD DUP2 LT PUSH2 0x749 JUMPI PUSH2 0x749 PUSH2 0x12E2 JUMP JUMPDEST SWAP1 PUSH1 0x0 MSTORE PUSH1 0x20 PUSH1 0x0 KECCAK256 SWAP1 PUSH1 0x10 SWAP2 DUP3 DUP3 DIV ADD SWAP2 SWAP1 MOD PUSH1 0x2 MUL DUP3 DUP3 DUP3 SWAP1 SLOAD SWAP1 PUSH2 0x100 EXP SWAP1 DIV PUSH2 0xFFFF AND PUSH2 0x77A SWAP2 SWAP1 PUSH2 0x130E JUMP JUMPDEST SWAP3 POP PUSH2 0x100 EXP DUP2 SLOAD DUP2 PUSH2 0xFFFF MUL NOT AND SWAP1 DUP4 PUSH2 0xFFFF AND MUL OR SWAP1 SSTORE POP JUMPDEST PUSH1 0x1 PUSH1 0x8 DUP6 PUSH1 0xFF AND DUP2 SLOAD DUP2 LT PUSH2 0x7AD JUMPI PUSH2 0x7AD PUSH2 0x12E2 JUMP JUMPDEST SWAP1 PUSH1 0x0 MSTORE PUSH1 0x20 PUSH1 0x0 KECCAK256 SWAP1 PUSH1 0x10 SWAP2 DUP3 DUP3 DIV ADD SWAP2 SWAP1 MOD PUSH1 0x2 MUL DUP3 DUP3 DUP3 SWAP1 SLOAD SWAP1 PUSH2 0x100 EXP SWAP1 DIV PUSH2 0xFFFF AND PUSH2 0x7DE SWAP2 SWAP1 PUSH2 0x1330 JUMP JUMPDEST SWAP3 POP PUSH2 0x100 EXP DUP2 SLOAD DUP2 PUSH2 0xFFFF MUL NOT AND SWAP1 DUP4 PUSH2 0xFFFF AND MUL OR SWAP1 SSTORE POP PUSH1 0x0 PUSH2 0x2710 PUSH2 0x1F40 CALLVALUE PUSH2 0x80B SWAP2 SWAP1 PUSH2 0x134B JUMP JUMPDEST PUSH2 0x815 SWAP2 SWAP1 PUSH2 0x1368 JUMP JUMPDEST SWAP1 POP PUSH1 0x0 PUSH2 0x823 DUP3 CALLVALUE PUSH2 0x138A JUMP JUMPDEST SWAP1 POP DUP2 PUSH1 0x1 PUSH1 0x0 DUP3 DUP3 SLOAD PUSH2 0x837 SWAP2 SWAP1 PUSH2 0x139D JUMP JUMPDEST SWAP3 POP POP DUP2 SWAP1 SSTORE POP DUP1 PUSH1 0x2 PUSH1 0x0 DUP3 DUP3 SLOAD PUSH2 0x850 SWAP2 SWAP1 PUSH2 0x139D JUMP JUMPDEST SWAP1 SWAP2 SSTORE POP POP TIMESTAMP PUSH1 0x3 SSTORE PUSH1 0x4 DUP1 SLOAD PUSH1 0x1 PUSH1 0x1 PUSH1 0xA0 SHL SUB NOT AND CALLER SWAP1 DUP2 OR SWAP1 SWAP2 SSTORE PUSH1 0x5 SLOAD PUSH1 0x0 SWAP1 DUP2 MSTORE PUSH1 0x9 PUSH1 0x20 SWAP1 DUP2 MSTORE PUSH1 0x40 DUP1 DUP4 KECCAK256 PUSH1 0xFF DUP12 AND DUP5 MSTORE DUP3 MSTORE DUP1 DUP4 KECCAK256 SWAP4 DUP4 MSTORE SWAP3 SWAP1 MSTORE SWAP1 DUP2 KECCAK256 DUP1 SLOAD PUSH1 0x1 SWAP3 SWAP1 PUSH2 0x8A7 SWAP1 DUP5 SWAP1 PUSH2 0x139D JUMP JUMPDEST SWAP1 SWAP2 SSTORE POP POP PUSH1 0x5 SLOAD PUSH1 0x0 SWAP1 DUP2 MSTORE PUSH1 0xA PUSH1 0x20 SWAP1 DUP2 MSTORE PUSH1 0x40 DUP1 DUP4 KECCAK256 PUSH1 0xFF DUP11 AND DUP5 MSTORE SWAP1 SWAP2 MSTORE DUP2 KECCAK256 DUP1 SLOAD PUSH1 0x1 SWAP3 SWAP1 PUSH2 0x8DC SWAP1 DUP5 SWAP1 PUSH2 0x139D JUMP JUMPDEST SWAP1 SWAP2 SSTORE POP POP PUSH1 0x40 MLOAD CALLVALUE DUP2 MSTORE PUSH1 0xFF DUP1 DUP9 AND SWAP2 SWAP1 DUP10 AND SWAP1 CALLER SWAP1 PUSH32 0x325E89373EE1E1A17E0733637253E56A141AA0D40880E92155EE0C1233E4F81 SWAP1 PUSH1 0x20 ADD PUSH1 0x40 MLOAD DUP1 SWAP2 SUB SWAP1 LOG4 PUSH2 0x928 PUSH2 0xEE0 JUMP JUMPDEST PUSH32 0x0 PUSH2 0xFFFF AND PUSH1 0x8 DUP8 PUSH1 0xFF AND DUP2 SLOAD DUP2 LT PUSH2 0x963 JUMPI PUSH2 0x963 PUSH2 0x12E2 JUMP JUMPDEST PUSH1 0x0 SWAP2 DUP3 MSTORE PUSH1 0x20 SWAP1 SWAP2 KECCAK256 PUSH1 0x10 DUP3 DIV ADD SLOAD PUSH1 0xF SWAP1 SWAP2 AND PUSH1 0x2 MUL PUSH2 0x100 EXP SWAP1 DIV PUSH2 0xFFFF AND SUB PUSH2 0x993 JUMPI PUSH2 0x993 DUP7 PUSH2 0xF0B JUMP JUMPDEST POP POP POP POP POP POP POP JUMP JUMPDEST PUSH1 0x60 PUSH1 0x7 DUP1 SLOAD DUP1 PUSH1 0x20 MUL PUSH1 0x20 ADD PUSH1 0x40 MLOAD SWAP1 DUP2 ADD PUSH1 0x40 MSTORE DUP1 SWAP3 SWAP2 SWAP1 DUP2 DUP2 MSTORE PUSH1 0x20 ADD DUP3 DUP1 SLOAD DUP1 ISZERO PUSH2 0xA08 JUMPI PUSH1 0x20 MUL DUP3 ADD SWAP2 SWAP1 PUSH1 0x0 MSTORE PUSH1 0x20 PUSH1 0x0 KECCAK256 SWAP1 PUSH1 0x0 SWAP1 JUMPDEST DUP3 SLOAD PUSH2 0x100 DUP4 SWAP1 EXP SWAP1 DIV PUSH1 0xFF AND DUP2 MSTORE PUSH1 0x20 PUSH1 0x1 SWAP3 DUP4 ADD DUP2 DUP2 DIV SWAP5 DUP6 ADD SWAP5 SWAP1 SWAP4 SUB SWAP1 SWAP3 MUL SWAP2 ADD DUP1 DUP5 GT PUSH2 0x9D9 JUMPI SWAP1 POP JUMPDEST POP POP POP POP POP SWAP1 POP SWAP1 JUMP JUMPDEST PUSH2 0xA1A PUSH2 0xAD6 JUMP JUMPDEST PUSH2 0xA59 JUMPI PUSH1 0x40 MLOAD PUSH3 0x461BCD PUSH1 0xE5 SHL DUP2 MSTORE PUSH1 0x20 PUSH1 0x4 DUP3 ADD MSTORE PUSH1 0x10 PUSH1 0x24 DUP3 ADD MSTORE PUSH16 0x151A5B594818985B9AC81B1BD8DAD959 PUSH1 0x82 SHL PUSH1 0x44 DUP3 ADD MSTORE PUSH1 0x64 ADD PUSH2 0x5A4 JUMP JUMPDEST PUSH1 0x4 SLOAD PUSH1 0x1 DUP1 SLOAD PUSH1 0x0 SWAP2 DUP3 SWAP1 SSTORE PUSH1 0x1 PUSH1 0x1 PUSH1 0xA0 SHL SUB SWAP1 SWAP3 AND DUP1 DUP3 MSTORE PUSH1 0xB PUSH1 0x20 MSTORE PUSH1 0x40 DUP3 KECCAK256 DUP1 SLOAD SWAP2 SWAP4 SWAP3 DUP4 SWAP3 PUSH2 0xA8F SWAP1 DUP5 SWAP1 PUSH2 0x139D JUMP JUMPDEST SWAP1 SWAP2 SSTORE POP POP PUSH1 0x40 MLOAD DUP2 DUP2 MSTORE PUSH1 0x1 PUSH1 0x1 PUSH1 0xA0 SHL SUB DUP4 AND SWAP1 PUSH32 0xB5DC20753823B22C1B265CDD463761314E76773534AFECD4E97211E03137AC5 SWAP1 PUSH1 0x20 ADD PUSH1 0x40 MLOAD DUP1 SWAP2 SUB SWAP1 LOG2 POP POP JUMP JUMPDEST PUSH1 0x4 SLOAD PUSH1 0x0 SWAP1 PUSH1 0x1 PUSH1 0x1 PUSH1 0xA0 SHL SUB AND ISZERO DUP1 ISZERO SWAP1 PUSH2 0xAF5 JUMPI POP PUSH1 0x0 PUSH1 0x1 SLOAD GT JUMPDEST DUP1 ISZERO PUSH2 0xB2E JUMPI POP PUSH32 0x0 PUSH1 0x3 SLOAD PUSH2 0xB2A SWAP2 SWAP1 PUSH2 0x139D JUMP JUMPDEST TIMESTAMP LT ISZERO JUMPDEST SWAP1 POP SWAP1 JUMP JUMPDEST PUSH1 0x60 PUSH1 0x8 DUP1 SLOAD DUP1 PUSH1 0x20 MUL PUSH1 0x20 ADD PUSH1 0x40 MLOAD SWAP1 DUP2 ADD PUSH1 0x40 MSTORE DUP1 SWAP3 SWAP2 SWAP1 DUP2 DUP2 MSTORE PUSH1 0x20 ADD DUP3 DUP1 SLOAD DUP1 ISZERO PUSH2 0xA08 JUMPI PUSH1 0x20 MUL DUP3 ADD SWAP2 SWAP1 PUSH1 0x0 MSTORE PUSH1 0x20 PUSH1 0x0 KECCAK256 SWAP1 PUSH1 0x0 SWAP1 JUMPDEST DUP3 DUP3 SWAP1 SLOAD SWAP1 PUSH2 0x100 EXP SWAP1 DIV PUSH2 0xFFFF AND PUSH2 0xFFFF AND DUP2 MSTORE PUSH1 0x20 ADD SWAP1 PUSH1 0x2 ADD SWAP1 PUSH1 0x20 DUP3 PUSH1 0x1 ADD DIV SWAP3 DUP4 ADD SWAP3 PUSH1 0x1 SUB DUP3 MUL SWAP2 POP DUP1 DUP5 GT PUSH2 0xB70 JUMPI SWAP1 POP POP POP POP POP POP SWAP1 POP SWAP1 JUMP JUMPDEST PUSH1 0xE SLOAD PUSH1 0xFF AND ISZERO PUSH2 0xBF2 JUMPI PUSH1 0x40 MLOAD PUSH3 0x461BCD PUSH1 0xE5 SHL DUP2 MSTORE PUSH1 0x20 PUSH1 0x4 DUP3 ADD MSTORE PUSH1 0xA PUSH1 0x24 DUP3 ADD MSTORE PUSH10 0x5265656E7472616E6379 PUSH1 0xB0 SHL PUSH1 0x44 DUP3 ADD MSTORE PUSH1 0x64 ADD PUSH2 0x5A4 JUMP JUMPDEST PUSH1 0xE DUP1 SLOAD PUSH1 0xFF NOT AND PUSH1 0x1 OR SWAP1 SSTORE CALLER PUSH1 0x0 SWAP1 DUP2 MSTORE PUSH1 0xB PUSH1 0x20 MSTORE PUSH1 0x40 SWAP1 KECCAK256 SLOAD DUP1 PUSH2 0xC52 JUMPI PUSH1 0x40 MLOAD PUSH3 0x461BCD PUSH1 0xE5 SHL DUP2 MSTORE PUSH1 0x20 PUSH1 0x4 DUP3 ADD MSTORE PUSH1 0x13 PUSH1 0x24 DUP3 ADD MSTORE PUSH19 0x4E6F7468696E6720746F207769746864726177 PUSH1 0x68 SHL PUSH1 0x44 DUP3 ADD MSTORE PUSH1 0x64 ADD PUSH2 0x5A4 JUMP JUMPDEST CALLER PUSH1 0x0 DUP2 DUP2 MSTORE PUSH1 0xB PUSH1 0x20 MSTORE PUSH1 0x40 DUP1 DUP3 KECCAK256 DUP3 SWAP1 SSTORE MLOAD SWAP1 SWAP2 SWAP1 DUP4 SWAP1 DUP4 DUP2 DUP2 DUP2 DUP6 DUP8 GAS CALL SWAP3 POP POP POP RETURNDATASIZE DUP1 PUSH1 0x0 DUP2 EQ PUSH2 0xCA3 JUMPI PUSH1 0x40 MLOAD SWAP2 POP PUSH1 0x1F NOT PUSH1 0x3F RETURNDATASIZE ADD AND DUP3 ADD PUSH1 0x40 MSTORE RETURNDATASIZE DUP3 MSTORE RETURNDATASIZE PUSH1 0x0 PUSH1 0x20 DUP5 ADD RETURNDATACOPY PUSH2 0xCA8 JUMP JUMPDEST PUSH1 0x60 SWAP2 POP JUMPDEST POP POP SWAP1 POP DUP1 PUSH2 0xCEB JUMPI PUSH1 0x40 MLOAD PUSH3 0x461BCD PUSH1 0xE5 SHL DUP2 MSTORE PUSH1 0x20 PUSH1 0x4 DUP3 ADD MSTORE PUSH1 0xF PUSH1 0x24 DUP3 ADD MSTORE PUSH15 0x151C985B9CD9995C8819985A5B1959 PUSH1 0x8A SHL PUSH1 0x44 DUP3 ADD MSTORE PUSH1 0x64 ADD PUSH2 0x5A4 JUMP JUMPDEST PUSH1 0x40 MLOAD DUP3 DUP2 MSTORE CALLER SWAP1 PUSH32 0x8A43C4352486EC339F487F64AF78CA5CBF06CD47833F073D3BAF3A193E503161 SWAP1 PUSH1 0x20 ADD PUSH1 0x40 MLOAD DUP1 SWAP2 SUB SWAP1 LOG2 POP POP PUSH1 0xE DUP1 SLOAD PUSH1 0xFF NOT AND SWAP1 SSTORE JUMP JUMPDEST PUSH1 0x0 DUP2 DUP2 MSTORE PUSH1 0xC PUSH1 0x20 SWAP1 DUP2 MSTORE PUSH1 0x40 SWAP2 DUP3 SWAP1 KECCAK256 DUP3 MLOAD PUSH1 0x80 DUP2 ADD DUP5 MSTORE DUP2 SLOAD PUSH1 0xFF SWAP1 DUP2 AND DUP3 MSTORE PUSH1 0x1 DUP4 ADD SLOAD SWAP4 DUP3 ADD SWAP4 SWAP1 SWAP4 MSTORE PUSH1 0x2 DUP3 ADD SLOAD SWAP4 DUP2 ADD SWAP4 SWAP1 SWAP4 MSTORE PUSH1 0x3 ADD SLOAD AND ISZERO ISZERO PUSH1 0x60 DUP3 ADD DUP2 SWAP1 MSTORE PUSH2 0xDB3 JUMPI PUSH1 0x40 MLOAD PUSH3 0x461BCD PUSH1 0xE5 SHL DUP2 MSTORE PUSH1 0x20 PUSH1 0x4 DUP3 ADD MSTORE PUSH1 0xD PUSH1 0x24 DUP3 ADD MSTORE PUSH13 0x526F756E64206D697373696E67 PUSH1 0x98 SHL PUSH1 0x44 DUP3 ADD MSTORE PUSH1 0x64 ADD PUSH2 0x5A4 JUMP JUMPDEST PUSH1 0x0 DUP3 DUP2 MSTORE PUSH1 0xD PUSH1 0x20 SWAP1 DUP2 MSTORE PUSH1 0x40 DUP1 DUP4 KECCAK256 CALLER DUP5 MSTORE SWAP1 SWAP2 MSTORE SWAP1 KECCAK256 SLOAD PUSH1 0xFF AND ISZERO PUSH2 0xE0F JUMPI PUSH1 0x40 MLOAD PUSH3 0x461BCD PUSH1 0xE5 SHL DUP2 MSTORE PUSH1 0x20 PUSH1 0x4 DUP3 ADD MSTORE PUSH1 0xF PUSH1 0x24 DUP3 ADD MSTORE PUSH15 0x105B1C9958591E4818DB185A5B5959 PUSH1 0x8A SHL PUSH1 0x44 DUP3 ADD MSTORE PUSH1 0x64 ADD PUSH2 0x5A4 JUMP JUMPDEST PUSH1 0x0 DUP3 DUP2 MSTORE PUSH1 0x9 PUSH1 0x20 SWAP1 DUP2 MSTORE PUSH1 0x40 DUP1 DUP4 KECCAK256 DUP5 MLOAD PUSH1 0xFF AND DUP5 MSTORE DUP3 MSTORE DUP1 DUP4 KECCAK256 CALLER DUP5 MSTORE SWAP1 SWAP2 MSTORE SWAP1 KECCAK256 SLOAD DUP1 PUSH2 0xE74 JUMPI PUSH1 0x40 MLOAD PUSH3 0x461BCD PUSH1 0xE5 SHL DUP2 MSTORE PUSH1 0x20 PUSH1 0x4 DUP3 ADD MSTORE PUSH1 0xF PUSH1 0x24 DUP3 ADD MSTORE PUSH15 0x27379031B7B73A3934B13ABA34B7B7 PUSH1 0x89 SHL PUSH1 0x44 DUP3 ADD MSTORE PUSH1 0x64 ADD PUSH2 0x5A4 JUMP JUMPDEST PUSH1 0x0 DUP3 PUSH1 0x40 ADD MLOAD DUP3 DUP5 PUSH1 0x20 ADD MLOAD PUSH2 0xE8B SWAP2 SWAP1 PUSH2 0x134B JUMP JUMPDEST PUSH2 0xE95 SWAP2 SWAP1 PUSH2 0x1368 JUMP JUMPDEST PUSH1 0x0 DUP6 DUP2 MSTORE PUSH1 0xD PUSH1 0x20 SWAP1 DUP2 MSTORE PUSH1 0x40 DUP1 DUP4 KECCAK256 CALLER DUP5 MSTORE DUP3 MSTORE DUP1 DUP4 KECCAK256 DUP1 SLOAD PUSH1 0xFF NOT AND PUSH1 0x1 OR SWAP1 SSTORE PUSH1 0xB SWAP1 SWAP2 MSTORE DUP2 KECCAK256 DUP1 SLOAD SWAP3 SWAP4 POP DUP4 SWAP3 SWAP1 SWAP2 SWAP1 PUSH2 0xED5 SWAP1 DUP5 SWAP1 PUSH2 0x139D JUMP JUMPDEST SWAP1 SWAP2 SSTORE POP POP POP POP POP POP JUMP JUMPDEST PUSH2 0x2710 PUSH2 0xEEF PUSH2 0x12C DUP3 PUSH2 0x139D JUMP JUMPDEST PUSH1 0x0 SLOAD PUSH2 0xEFC SWAP2 SWAP1 PUSH2 0x134B JUMP JUMPDEST PUSH2 0xF06 SWAP2 SWAP1 PUSH2 0x1368 JUMP JUMPDEST PUSH1 0x0 SSTORE JUMP JUMPDEST PUSH1 0x2 SLOAD DUP1 PUSH2 0xF4E JUMPI PUSH1 0x40 MLOAD PUSH3 0x461BCD PUSH1 0xE5 SHL DUP2 MSTORE PUSH1 0x20 PUSH1 0x4 DUP3 ADD MSTORE PUSH1 0x10 PUSH1 0x24 DUP3 ADD MSTORE PUSH16 0x436F6C6F722062616E6B20656D707479 PUSH1 0x80 SHL PUSH1 0x44 DUP3 ADD MSTORE PUSH1 0x64 ADD PUSH2 0x5A4 JUMP JUMPDEST PUSH1 0x5 SLOAD PUSH1 0x0 SWAP1 DUP2 MSTORE PUSH1 0xA PUSH1 0x20 SWAP1 DUP2 MSTORE PUSH1 0x40 DUP1 DUP4 KECCAK256 PUSH1 0xFF DUP7 AND DUP5 MSTORE SWAP1 SWAP2 MSTORE SWAP1 KECCAK256 SLOAD DUP1 PUSH2 0xFB2 JUMPI PUSH1 0x40 MLOAD PUSH3 0x461BCD PUSH1 0xE5 SHL DUP2 MSTORE PUSH1 0x20 PUSH1 0x4 DUP3 ADD MSTORE PUSH1 0x14 PUSH1 0x24 DUP3 ADD MSTORE PUSH20 0x27379039BA3937B5B2B9903337B91031B7B637B9 PUSH1 0x61 SHL PUSH1 0x44 DUP3 ADD MSTORE PUSH1 0x64 ADD PUSH2 0x5A4 JUMP JUMPDEST PUSH1 0x0 PUSH1 0x2 DUP2 DUP2 SSTORE PUSH1 0x40 DUP1 MLOAD PUSH1 0x80 DUP2 ADD DUP3 MSTORE PUSH1 0xFF DUP8 DUP2 AND DUP1 DUP4 MSTORE PUSH1 0x20 DUP1 DUP5 ADD DUP10 DUP2 MSTORE DUP5 DUP7 ADD DUP10 DUP2 MSTORE PUSH1 0x1 PUSH1 0x60 DUP8 ADD DUP2 DUP2 MSTORE PUSH1 0x5 DUP1 SLOAD DUP13 MSTORE PUSH1 0xC DUP7 MSTORE SWAP11 DUP10 SWAP1 KECCAK256 SWAP8 MLOAD DUP9 SLOAD SWAP8 AND PUSH1 0xFF NOT SWAP8 DUP9 AND OR DUP9 SSTORE SWAP3 MLOAD SWAP1 DUP8 ADD SSTORE MLOAD SWAP7 DUP6 ADD SWAP7 SWAP1 SWAP7 SSTORE SWAP5 MLOAD PUSH1 0x3 SWAP1 SWAP4 ADD DUP1 SLOAD SWAP4 ISZERO ISZERO SWAP4 SWAP1 SWAP3 AND SWAP3 SWAP1 SWAP3 OR SWAP1 SSTORE SWAP3 SLOAD PUSH1 0x6 DUP2 SWAP1 SSTORE DUP2 MLOAD DUP7 DUP2 MSTORE SWAP3 DUP4 ADD DUP6 SWAP1 MSTORE SWAP2 PUSH32 0x15D0B20EBE8FB7EB1BEC190A0265353F6F6AC37422457114606D7DF267CE7A4 SWAP2 ADD PUSH1 0x40 MLOAD DUP1 SWAP2 SUB SWAP1 LOG3 PUSH1 0x1 PUSH1 0x5 PUSH1 0x0 DUP3 DUP3 SLOAD PUSH2 0x1074 SWAP2 SWAP1 PUSH2 0x139D JUMP JUMPDEST SWAP1 SWAP2 SSTORE POP PUSH2 0x1082 SWAP1 POP PUSH2 0x1087 JUMP JUMPDEST POP POP POP JUMP JUMPDEST PUSH1 0x0 JUMPDEST PUSH1 0x7 SLOAD DUP2 LT ISZERO PUSH2 0x10E0 JUMPI PUSH1 0xFF PUSH1 0x7 DUP3 DUP2 SLOAD DUP2 LT PUSH2 0x10A9 JUMPI PUSH2 0x10A9 PUSH2 0x12E2 JUMP JUMPDEST SWAP1 PUSH1 0x0 MSTORE PUSH1 0x20 PUSH1 0x0 KECCAK256 SWAP1 PUSH1 0x20 SWAP2 DUP3 DUP3 DIV ADD SWAP2 SWAP1 MOD PUSH2 0x100 EXP DUP2 SLOAD DUP2 PUSH1 0xFF MUL NOT AND SWAP1 DUP4 PUSH1 0xFF AND MUL OR SWAP1 SSTORE POP DUP1 DUP1 PUSH1 0x1 ADD SWAP2 POP POP PUSH2 0x108A JUMP JUMPDEST POP PUSH1 0x0 JUMPDEST PUSH1 0x8 SLOAD DUP2 LT ISZERO PUSH2 0x113F JUMPI PUSH1 0x0 PUSH1 0x8 DUP3 DUP2 SLOAD DUP2 LT PUSH2 0x1103 JUMPI PUSH2 0x1103 PUSH2 0x12E2 JUMP JUMPDEST SWAP1 PUSH1 0x0 MSTORE PUSH1 0x20 PUSH1 0x0 KECCAK256 SWAP1 PUSH1 0x10 SWAP2 DUP3 DUP3 DIV ADD SWAP2 SWAP1 MOD PUSH1 0x2 MUL PUSH2 0x100 EXP DUP2 SLOAD DUP2 PUSH2 0xFFFF MUL NOT AND SWAP1 DUP4 PUSH2 0xFFFF AND MUL OR SWAP1 SSTORE POP DUP1 DUP1 PUSH1 0x1 ADD SWAP2 POP POP PUSH2 0x10E4 JUMP JUMPDEST POP JUMP JUMPDEST DUP1 CALLDATALOAD PUSH1 0xFF DUP2 AND DUP2 EQ PUSH2 0x1153 JUMPI PUSH1 0x0 DUP1 REVERT JUMPDEST SWAP2 SWAP1 POP JUMP JUMPDEST PUSH1 0x0 DUP1 PUSH1 0x40 DUP4 DUP6 SUB SLT ISZERO PUSH2 0x116B JUMPI PUSH1 0x0 DUP1 REVERT JUMPDEST PUSH2 0x1174 DUP4 PUSH2 0x1142 JUMP JUMPDEST SWAP2 POP PUSH2 0x1182 PUSH1 0x20 DUP5 ADD PUSH2 0x1142 JUMP JUMPDEST SWAP1 POP SWAP3 POP SWAP3 SWAP1 POP JUMP JUMPDEST DUP1 CALLDATALOAD PUSH1 0x1 PUSH1 0x1 PUSH1 0xA0 SHL SUB DUP2 AND DUP2 EQ PUSH2 0x1153 JUMPI PUSH1 0x0 DUP1 REVERT JUMPDEST PUSH1 0x0 DUP1 PUSH1 0x40 DUP4 DUP6 SUB SLT ISZERO PUSH2 0x11B5 JUMPI PUSH1 0x0 DUP1 REVERT JUMPDEST DUP3 CALLDATALOAD SWAP2 POP PUSH2 0x1182 PUSH1 0x20 DUP5 ADD PUSH2 0x118B JUMP JUMPDEST PUSH1 0x20 DUP1 DUP3 MSTORE DUP3 MLOAD DUP3 DUP3 ADD DUP2 SWAP1 MSTORE PUSH1 0x0 SWAP2 SWAP1 DUP5 DUP3 ADD SWAP1 PUSH1 0x40 DUP6 ADD SWAP1 DUP5 JUMPDEST DUP2 DUP2 LT ISZERO PUSH2 0x1200 JUMPI DUP4 MLOAD PUSH1 0xFF AND DUP4 MSTORE SWAP3 DUP5 ADD SWAP3 SWAP2 DUP5 ADD SWAP2 PUSH1 0x1 ADD PUSH2 0x11E1 JUMP JUMPDEST POP SWAP1 SWAP7 SWAP6 POP POP POP POP POP POP JUMP JUMPDEST PUSH1 0x0 DUP1 PUSH1 0x0 PUSH1 0x60 DUP5 DUP7 SUB SLT ISZERO PUSH2 0x1221 JUMPI PUSH1 0x0 DUP1 REVERT JUMPDEST DUP4 CALLDATALOAD SWAP3 POP PUSH2 0x1231 PUSH1 0x20 DUP6 ADD PUSH2 0x1142 JUMP JUMPDEST SWAP2 POP PUSH2 0x123F PUSH1 0x40 DUP6 ADD PUSH2 0x118B JUMP JUMPDEST SWAP1 POP SWAP3 POP SWAP3 POP SWAP3 JUMP JUMPDEST PUSH1 0x0 PUSH1 0x20 DUP3 DUP5 SUB SLT ISZERO PUSH2 0x125A JUMPI PUSH1 0x0 DUP1 REVERT JUMPDEST PUSH2 0x1263 DUP3 PUSH2 0x118B JUMP JUMPDEST SWAP4 SWAP3 POP POP POP JUMP JUMPDEST PUSH1 0x0 PUSH1 0x20 DUP3 DUP5 SUB SLT ISZERO PUSH2 0x127C JUMPI PUSH1 0x0 DUP1 REVERT JUMPDEST POP CALLDATALOAD SWAP2 SWAP1 POP JUMP JUMPDEST PUSH1 0x20 DUP1 DUP3 MSTORE DUP3 MLOAD DUP3 DUP3 ADD DUP2 SWAP1 MSTORE PUSH1 0x0 SWAP2 SWAP1 DUP5 DUP3 ADD SWAP1 PUSH1 0x40 DUP6 ADD SWAP1 DUP5 JUMPDEST DUP2 DUP2 LT ISZERO PUSH2 0x1200 JUMPI DUP4 MLOAD PUSH2 0xFFFF AND DUP4 MSTORE SWAP3 DUP5 ADD SWAP3 SWAP2 DUP5 ADD SWAP2 PUSH1 0x1 ADD PUSH2 0x129F JUMP JUMPDEST PUSH1 0x0 DUP1 PUSH1 0x40 DUP4 DUP6 SUB SLT ISZERO PUSH2 0x12D2 JUMPI PUSH1 0x0 DUP1 REVERT JUMPDEST DUP3 CALLDATALOAD SWAP2 POP PUSH2 0x1182 PUSH1 0x20 DUP5 ADD PUSH2 0x1142 JUMP JUMPDEST PUSH4 0x4E487B71 PUSH1 0xE0 SHL PUSH1 0x0 MSTORE PUSH1 0x32 PUSH1 0x4 MSTORE PUSH1 0x24 PUSH1 0x0 REVERT JUMPDEST PUSH4 0x4E487B71 PUSH1 0xE0 SHL PUSH1 0x0 MSTORE PUSH1 0x11 PUSH1 0x4 MSTORE PUSH1 0x24 PUSH1 0x0 REVERT JUMPDEST PUSH2 0xFFFF DUP3 DUP2 AND DUP3 DUP3 AND SUB SWAP1 DUP1 DUP3 GT ISZERO PUSH2 0x1329 JUMPI PUSH2 0x1329 PUSH2 0x12F8 JUMP JUMPDEST POP SWAP3 SWAP2 POP POP JUMP JUMPDEST PUSH2 0xFFFF DUP2 DUP2 AND DUP4 DUP3 AND ADD SWAP1 DUP1 DUP3 GT ISZERO PUSH2 0x1329 JUMPI PUSH2 0x1329 PUSH2 0x12F8 JUMP JUMPDEST DUP1 DUP3 MUL DUP2 ISZERO DUP3 DUP3 DIV DUP5 EQ OR PUSH2 0x1362 JUMPI PUSH2 0x1362 PUSH2 0x12F8 JUMP JUMPDEST SWAP3 SWAP2 POP POP JUMP JUMPDEST PUSH1 0x0 DUP3 PUSH2 0x1385 JUMPI PUSH4 0x4E487B71 PUSH1 0xE0 SHL PUSH1 0x0 MSTORE PUSH1 0x12 PUSH1 0x4 MSTORE PUSH1 0x24 PUSH1 0x0 REVERT JUMPDEST POP DIV SWAP1 JUMP JUMPDEST DUP2 DUP2 SUB DUP2 DUP2 GT ISZERO PUSH2 0x1362 JUMPI PUSH2 0x1362 PUSH2 0x12F8 JUMP JUMPDEST DUP1 DUP3 ADD DUP1 DUP3 GT ISZERO PUSH2 0x1362 JUMPI PUSH2 0x1362 PUSH2 0x12F8 JUMP INVALID LOG2 PUSH5 0x6970667358 0x22 SLT KECCAK256 0xD1 CALL CALL SWAP16 PUSH11 0x88DCE4AE2AF8C3B1B5070D DELEGATECALL SWAP11 0xE1 0xDB CODECOPY CALLVALUE DUP8 MSTORE8 AND PUSH6 0xF80846395EE1 PUSH5 0x736F6C6343 STOP ADDMOD OR STOP CALLER "},"methodIdentifiers":{"INITIAL_PRICE()":"7c5e2795","canClaimTimeBank()":"71813075","claimColorBank(uint256)":"dee36302","claimTimeBank()":"378330ad","claimableBalance(address)":"60f3309b","colorBank()":"c4574ac0","colorCount()":"7668f48d","colorRewardClaimed(uint256,address)":"304c18b9","colorWins(uint256)":"620352cd","currentPrice()":"9d1b464a","currentRound()":"8a19c8bc","getBoard()":"3264a34b","getColorFillCounts()":"7f17472f","gridCells()":"e1f49d0b","gridSide()":"17ee80ca","idleThreshold()":"c1f78cca","lastColorWinRound()":"0dc360be","lastPaintTimestamp()":"299bd47f","lastPainter()":"46cfce05","paintCell(uint8,uint8)":"19ef4ef0","strokesPerRound(uint256,uint8,address)":"3dbd4cca","timeBank()":"4fe4915c","totalStrokesPerRound(uint256,uint8)":"92588475","withdrawRewards()":"c7b8981c"}}}}}